:020000040800F2
:1000000000000220A5150008F1130008F3130008F2
:10001000F5130008F7130008F913000800000000AA
:10002000000000000000000000000000FB130008BA
:10003000FD13000800000000FF1300080114000871
:10004000F5150008F5150008F5150008F515000868
:10005000F5150008F5150008F5150008F515000858
:10006000F5150008F5150008F5150008F515000848
:10007000F5150008F5150008F5150008F515000838
:10008000F5150008F5150008F5150008F515000828
:10009000F51500080914000819140008F5150008E2
:1000A000F5150008F5150008F5150008F515000808
:1000B000F5150008F5150008F5150008F5150008F8
:1000C000F5150008F5150008F5150008F5150008E8
:1000D000F515000829140008F5150008F5150008A5
:1000E000F5150008F5150008F5150008F5150008C8
:1000F000F5150008F5150008F5150008F5150008B8
:10010000F5150008F5150008F5150008F5150008A7
:10011000F5150008F5150008F5150008F515000897
:10012000F5150008F5150008F5150008F515000887
:10013000F5150008F5150008F5150008F515000877
:10014000F5150008F5150008F5150008F515000867
:10015000F5150008F5150008F5150008F515000857
:10016000F5150008F5150008F5150008F515000847
:10017000F5150008F5150008F5150008F515000837
:10018000F5150008F5150008F5150008F515000827
:10019000F515000800000000F5150008F515000829
:1001A000F5150008F5150008F5150008F515000807
:1001B000F5150008F5150008F5150008F5150008F7
:1001C000F5150008F5150008F5150008F5150008E7
:0801D000F5150008F515000803
:1002000053B94AB9002908BF00281CBF4FF0FF317D
:100210004FF0FF3000F074B9ADF1080C6DE904CE79
:1002200000F006F8DDF804E0DDE9022304B07047D1
:100230002DE9F047089E0D4604468846002B4DD117
:100240008A42944668D9B2FA82F252B101FA02F3B4
:10025000C2F1200120FA01F10CFA02FC41EA030884
:1002600094404FEA1C45210CB8FBF5FE1FFA8CF7B1
:1002700005FB1E8341EA03430EFB07F199420BD9AC
:100280001CEB03030EF1FF3080F01E81994240F217
:100290001B81AEF1020E63445B1AA4B2B3FBF5F00E
:1002A00005FB103344EA034400FB07F7A7420AD9D1
:1002B0001CEB040400F1FF3380F00881A74240F2F8
:1002C000058164440238E41B40EA0E4000211EB15F
:1002D000D4400023C6E90043BDE8F0878B4208D92B
:1002E000002E00F0EE800021C6E900050846BDE8BA
:1002F000F087B3FA83F100294AD1AB4202D382429C
:1003000000F2F980841A65EB030301209846002E61
:10031000E2D0C6E90048DFE702B9FFDEB2FA82F2B6
:10032000002A40F09180A1EB0C054FEA1C471FFA10
:100330008CFE0121B5FBF7F307FB1350250C45EAB2
:1003400000450EFB03F0A84208D91CEB050503F19C
:10035000FF3802D2A84200F2CB8043462D1AA4B245
:10036000B5FBF7F007FB105544EA05440EFB00FE11
:10037000A64508D91CEB040400F1FF3502D2A645BE
:1003800000F2BB802846A4EB0E0440EA03409EE73F
:10039000C1F120078B4022FA07FC4CEA030C20FA3B
:1003A00007F405FA01F31C43FD404FEA1C4900FA2B
:1003B00001F3B5FBF9F8200C1FFA8CFE09FB185568
:1003C00040EA054508FB0EF0A84202FA01F20BD9FB
:1003D0001CEB050508F1FF3A80F08880A84240F246
:1003E0008580A8F1020865442D1AA4B2B5FBF9F086
:1003F00009FB105544EA054500FB0EFEAE4508D941
:100400001CEB050500F1FF346CD2AE456AD9023809
:10041000654440EA0840A0FB0294A5EB0E05A54206
:10042000C846A64656D353D05EB1B3EB080265EB7F
:100430000E0505FA07F722FA01F3CD401F43C6E97E
:1004400000750021BDE8F087C2F1200320FA03F116
:100450000CFA02FC25FA03F395400D434FEA1C47C2
:100460001FFA8CFEB3FBF7F107FB11302B0C43EAAC
:10047000004301FB0EF0984204FA02F408D91CEB89
:10048000030301F1FF382FD298422DD9023963447A
:100490001B1AADB2B3FBF7F007FB103345EA034577
:1004A00000FB0EF3AB4208D91CEB050500F1FF3849
:1004B00016D2AB4214D902386544ED1A40EA014124
:1004C00038E73146304607E78646E5E61846FAE65D
:1004D0004B45A9D2B9EB020864EB0C0E0138A3E737
:1004E0004046EAE7204694E74146D1E7D0467BE71D
:1004F000023B654432E7084609E76444023842E7B4
:10050000704700BF00000000000000000000000075
:1005100001F0FF01102A2BDB10F0070F08D010F8B4
:10052000013B013A8B422DD010F0070F42B3F6D1B8
:10053000F0B441EA012141EA014122F007047FF0D1
:1005400000070023F0E80256083C85EA010586EA28
:10055000010685FA47F5A3FA87F586FA47F6A5FA64
:1005600087F68EB9EED1F0BC01F0FF0102F0070270
:1005700032B110F8013B013A83EA010313B1F8D11B
:100580000020704701387047002D06BF35460338FC
:10059000073815F0010F07D1013015F4807F02BF35
:1005A000013015F4C03F0130F0BC0138704700BF86
:1005B000844641EA000313F003036DD1403A41D36E
:1005C00051F8043B40F8043B51F8043B40F8043B2D
:1005D00051F8043B40F8043B51F8043B40F8043B1D
:1005E00051F8043B40F8043B51F8043B40F8043B0D
:1005F00051F8043B40F8043B51F8043B40F8043BFD
:1006000051F8043B40F8043B51F8043B40F8043BEC
:1006100051F8043B40F8043B51F8043B40F8043BDC
:1006200051F8043B40F8043B51F8043B40F8043BCC
:1006300051F8043B40F8043B51F8043B40F8043BBC
:10064000403ABDD2303211D351F8043B40F8043B5C
:1006500051F8043B40F8043B51F8043B40F8043B9C
:1006600051F8043B40F8043B103AEDD20C3205D36C
:1006700051F8043B40F8043B043AF9D2043208D064
:10068000D2071CBF11F8013B00F8013B01D30B88D6
:1006900003806046704700BF082A13D38B078DD0B4
:1006A00010F003038AD0C3F10403D21ADB071CBF86
:1006B00011F8013B00F8013B80D331F8023B20F8F0
:1006C000023B7BE7043AD9D3013A11F8013B00F829
:1006D000013BF9D20B7803704B7843708B788370B1
:1006E00060467047000000000000000000000000AD
:1006F00000000000000000000000000000000000FA
:1007000090F800F06DE9024520F007016FF0000C51
:1007100010F0070491F820F040F049804FF00004F9
:100720006FF00700D1E9002391F840F000F10800D4
:1007300082FA4CF2A4FA8CF283FA4CF3A2FA8CF30C
:100740004BBBD1E9022382FA4CF200F10800A4FA73
:100750008CF283FA4CF3A2FA8CF3E3B9D1E90423C7
:1007600082FA4CF200F10800A4FA8CF283FA4CF3FE
:10077000A2FA8CF37BB9D1E9062301F1200182FAB8
:100780004CF200F10800A4FA8CF283FA4CF3A2FABE
:100790008CF3002BC6D0002A04BF04301A4612BACC
:1007A000B2FA82F2FDE8024500EBD2007047D1E9CF
:1007B000002304F00305C4F100004FEAC50514F05E
:1007C000040F91F840F00CFA05F562EA05021CBF2F
:1007D00063EA050362464FF00004A9E781F0004197
:1007E00002E000BF83F0004330B54FEA41044FEA16
:1007F000430594EA050F08BF90EA020F1FBF54EAB1
:10080000000C55EA020C7FEA645C7FEA655C00F04C
:10081000E2804FEA5454D4EB5555B8BF6D420CDD1D
:100820002C4480EA020281EA030382EA000083EAA0
:10083000010180EA020281EA0303362D88BF30BD40
:1008400011F0004F4FEA01314FF4801C4CEA113196
:1008500002D0404261EB410113F0004F4FEA0333F5
:100860004CEA133302D0524263EB430394EA050F80
:1008700000F0A780A4F10104D5F1200E0DDB02FAEF
:100880000EFC22FA05F2801841F1000103FA0EF283
:10089000801843FA05F359410EE0A5F120050EF149
:1008A000200E012A03FA0EFC28BF4CF0020C43FA7A
:1008B00005F3C01851EBE37101F0004507D54FF087
:1008C000000EDCF1000C7EEB00006EEB0101B1F5D7
:1008D000801F1BD3B1F5001F0CD349085FEA30001D
:1008E0004FEA3C0C04F101044FEA445212F5800F28
:1008F00080F09A80BCF1004F08BF5FEA500C50F1C5
:10090000000041EB045141EA050130BD5FEA4C0CA7
:10091000404141EB0101013C28BFB1F5801FE9D204
:1009200091F0000F04BF01460020B1FA81F308BF27
:100930002033A3F10B03B3F120020CDA0C3208DDF3
:1009400002F1140CC2F10C0201FA0CF021FA02F1CE
:100950000CE002F11402D8BFC2F1200C01FA02F13E
:1009600020FA0CFCDCBF41EA0C019040E41AA2BF63
:1009700001EB0451294330BD6FEA04041F3C1CDA2B
:100980000C340EDC04F11404C4F1200220FA04F04B
:1009900001FA02F340EA030021FA04F345EA0301F5
:1009A00030BDC4F10C04C4F1200220FA02F001FAB7
:1009B00004F340EA0300294630BD21FA04F0294639
:1009C00030BD94F0000F83F4801306BF81F48011D2
:1009D0000134013D4EE77FEA645C18BF7FEA655C45
:1009E00029D094EA050F08BF90EA020F05D054EA17
:1009F000000C04BF1946104630BD91EA030F1EBF1C
:100A00000021002030BD5FEA545C05D1400049411F
:100A100028BF41F0004130BD14F580043CBF01F512
:100A2000801130BD01F0004545F0FE4141F47001F8
:100A30004FF0000030BD7FEA645C1ABF19461046D3
:100A40007FEA655C1CBF0B46024650EA013406BFD4
:100A500052EA033591EA030F41F4002130BD00BF93
:100A600090F0000F04BF0021704730B54FF4806450
:100A700004F132044FF000054FF0000150E700BFD1
:100A800090F0000F04BF0021704730B54FF4806430
:100A900004F1320410F0004548BF40424FF000011D
:100AA0003EE700BF42004FEAE2014FEA31014FEA60
:100AB00002701FBF12F07F4393F07F4F81F06051AF
:100AC000704732F07F4208BF704793F07F4F04BFFA
:100AD00041F40021704730B54FF4607401F00045D7
:100AE00021F000411CE700BF50EA010208BF704737
:100AF00030B54FF000050AE050EA010208BF704728
:100B000030B511F0004502D5404261EB41014FF490
:100B1000806404F132045FEA915C3FF4D8AE4FF098
:100B200003025FEADC0C18BF03325FEADC0C18BF7B
:100B3000033202EBDC02C2F1200300FA03FC20FACC
:100B400002F001FA03FE40EA0E0021FA02F1144419
:100B5000BDE600BF70B54FF0FF0C4CF4E06C1CEA32
:100B600011541DBF1CEA135594EA0C0F95EA0C0FA3
:100B700000F0DEF82C4481EA030621EA4C5123EA16
:100B80004C5350EA013518BF52EA033541F4801145
:100B900043F4801338D0A0FB02CE4FF00005E1FBF8
:100BA00002E506F00042E0FB03E54FF00006E1FB42
:100BB00003569CF0000F18BF4EF0010EA4F1FF0485
:100BC000B6F5007F64F5407404D25FEA4E0E6D41C5
:100BD00046EB060642EAC62141EA55514FEAC520D6
:100BE00040EA5E504FEACE2EB4F1FD0C88BFBCF552
:100BF000E06F1ED8BEF1004F08BF5FEA500E50F103
:100C0000000041EB045170BD06F0004646EA0101C8
:100C100040EA020081EA0301B4EB5C04C2BFD4EBFA
:100C20000C0541EA045170BD41F480114FF0000EF3
:100C3000013C00F3AB8014F1360FDEBF002001F061
:100C4000004170BDC4F10004203C35DA0C341BDCDB
:100C500004F11404C4F1200500FA05F320FA04F0AD
:100C600001FA05F240EA020001F0004221F00041E1
:100C700010EBD37021FA04F642EB06015EEA430E54
:100C800008BF20EAD37070BDC4F10C04C4F1200584
:100C900000FA04F320FA05F001FA04F240EA020037
:100CA00001F0004110EBD37041F100015EEA430E08
:100CB00008BF20EAD37070BDC4F1200500FA05F228
:100CC0004EEA020E20FA04F301FA05F243EA0203A7
:100CD00021FA04F001F0004121FA04F220EA0200B6
:100CE00000EBD3705EEA430E08BF20EAD37070BDFC
:100CF00094F0000F0FD101F00046400041EB0101DC
:100D000011F4801F08BF013CF7D041EA060195F0BD
:100D1000000F18BF704703F00046520043EB030377
:100D200013F4801F08BF013DF7D043EA0603704764
:100D300094EA0C0F0CEA135518BF95EA0C0F0CD06F
:100D400050EA410618BF52EA4306D1D181EA0301B5
:100D500001F000414FF0000070BD50EA410606BFAF
:100D60001046194652EA430619D094EA0C0F02D1F4
:100D700050EA013613D195EA0C0F05D152EA033639
:100D80001CBF104619460AD181EA030101F0004157
:100D900041F0FE4141F470014FF0000070BD41F0A0
:100DA000FE4141F4780170BD70B54FF0FF0C4CF47A
:100DB000E06C1CEA11541DBF1CEA135594EA0C0F99
:100DC00095EA0C0F00F0A7F8A4EB050481EA030EE6
:100DD00052EA03354FEA013100F088804FEA0333CD
:100DE0004FF0805545EA131343EA12634FEA02229B
:100DF00045EA111545EA10654FEA00260EF000415C
:100E00009D4208BF964244F1FD0404F5407402D2AD
:100E10005B084FEA3202B61A65EB03055B084FEA3E
:100E200032024FF480104FF4002CB6EB020E75EB3B
:100E3000030E22BFB61A754640EA0C005B084FEA63
:100E40003202B6EB020E75EB030E22BFB61A7546E0
:100E500040EA5C005B084FEA3202B6EB020E75EB2B
:100E6000030E22BFB61A754640EA9C005B084FEAA3
:100E70003202B6EB020E75EB030E22BFB61A7546B0
:100E800040EADC0055EA060E18D04FEA051545EA9F
:100E900016754FEA06164FEAC30343EA52734FEA48
:100EA000C2025FEA1C1CC0D111F4801F0BD141EAC1
:100EB00000014FF000004FF0004CB6E711F4801F26
:100EC00004BF01430020B4F1FD0C88BFBCF5E06F06
:100ED0003FF6AFAEB5EB030C04BFB6EB020C5FEA16
:100EE000500C50F1000041EB045170BD0EF0004E6B
:100EF0004EEA113114EB5C04C2BFD4EB0C0541EA9D
:100F0000045170BD41F480114FF0000E013C90E699
:100F100045EA060E8DE60CEA135594EA0C0F08BF5D
:100F200095EA0C0F3FF43BAF94EA0C0F0AD150EA5C
:100F300001347FF434AF95EA0C0F7FF425AF1046EF
:100F400019462CE795EA0C0F06D152EA03353FF417
:100F5000FDAE1046194622E750EA410618BF52EA94
:100F600043067FF4C5AE50EA41047FF40DAF52EA68
:100F700043057FF4EBAE12E74FF0FF3C06E000BF05
:100F80004FF0010C02E000BF4FF0010C4DF804CD12
:100F90004FEA410C7FEA6C5C4FEA430C18BF7FEAD2
:100FA0006C5C1BD001B050EA410C0CBF52EA430C00
:100FB00091EA030F02BF90EA020F0020704710F180
:100FC000000F91EA030F58BF994208BF90422CBF0F
:100FD000D8176FEAE37040F0010070474FEA410C08
:100FE0007FEA6C5C02D150EA013C07D14FEA430C26
:100FF0007FEA6C5CD6D152EA033CD3D05DF8040B97
:10100000704700BF8446104662468C4619466346C8
:1010100000E000BF01B5FFF7B7FF002848BF10F19F
:10102000000F01BD4DF808EDFFF7F4FF0CBF0120E4
:1010300000205DF808FB00BF4DF808EDFFF7EAFF60
:1010400034BF012000205DF808FB00BF4DF808ED1B
:10105000FFF7E0FF94BF012000205DF808FB00BF10
:101060004DF808EDFFF7CEFF94BF012000205DF89A
:1010700008FB00BF4DF808EDFFF7C4FF34BF0120A7
:1010800000205DF808FB00BF4FEA410C7FEA6C5C72
:1010900002D150EA013C0AD14FEA430C7FEA6C5C72
:1010A00002D152EA033C02D14FF0000070474FF0EA
:1010B000010070474FEA410212F5001215D211D516
:1010C0006FF47873B3EB625212D94FEAC12343F045
:1010D000004343EA505311F0004F23FA02F018BFC7
:1010E000404270474FF00000704750EA013005D190
:1010F00011F0004008BF6FF0004070474FF0000053
:10110000704700BF10B5044600F058FD2268536DCB
:1011100043F0010353652268536D43F002035365A6
:1011200000220121204600F03BFE0022082120463B
:1011300000F036FE10BD10B586B013F0010F12D0CE
:101140004FF080440094C3F3C1040194C3F34114ED
:101150000294C3F34103039304910592694600F09E
:10116000FDFC06B010BD00240094DC080194C3F31C
:101170004113029304F00304039404910592EDE7F4
:1011800010B58AB08AB901910292002103919DF8AD
:1011900030200492059106910791089109911A4611
:1011A00001A900F022FD0AB010BD0029EDD1019285
:1011B0004FF080420292E8E738B51048104B0360C8
:1011C0000023436083600322C2600374437483740A
:1011D00011254561012484610621C16102624562D5
:1011E0008462C1620263082242638263C36300F0C7
:1011F000CBFB00B938BD00F07FF8FBE7B409002055
:101200000064004010B59CB004460021179118916D
:1012100019911A911B91542202A803F033F9226804
:10122000224B9A4201D01CB010BD4FF48053029360
:101230004FF00073109302A801F086FC002832D111
:101240001B4B9A6D42F000729A659A6D02F0007223
:101250000092009ADA6C42F00102DA64DB6C03F06F
:1012600001030193019B4FF4C0531793022318937A
:10127000002419941A9409231B9317A94FF0904046
:1012800000F0DEFE22462146152000F025FA15204A
:1012900000F05AFA22462146162000F01DFA1620C8
:1012A00000F052FABFE700F027F8C9E700640040F9
:1012B0000010024084B00F4BDA6C42F02002DA6476
:1012C000DA6C02F020020192019ADA6C42F0040218
:1012D000DA64DA6C02F004020292029ADA6C42F0EA
:1012E0000102DA64DB6C03F001030393039B04B097
:1012F000704700BF0010024072B6FEE700B595B01F
:101300003822002106A803F0BDF8002001900290C9
:1013100003900490059000F081FF012306934FF4A1
:101320008033079302230D9303220E920C220F9217
:101330005522109211931293139306A801F028F8E6
:1013400080B90F2301930323029300230393049393
:10135000059304210DEB010001F0D0FA20B915B07E
:101360005DF804FBFFF7C8FFFFF7C6FF00B585B0C7
:1013700000F06AF9FFF7C2FFFFF79CFF00F092F858
:10138000FFF71AFF02F0C6FF094B93E8030004AB16
:1013900003E903000123009302AB00224FF489719B
:1013A0000448FFF7EDFE4FF47A7000F06FF9F1E7B3
:1013B00078A40008B409002000B583B00B4B1A6E66
:1013C00042F001021A661A6E02F001020092009ABF
:1013D0009A6D42F080529A659B6D03F080530193A1
:1013E000019B00F0A1FF03B05DF804FB0010024078
:1013F000FEE7FEE7FEE7FEE7FEE77047704770474F
:1014000008B500F031F908BD08B5024800F054FDF8
:1014100008BD00BFB409002008B5024800F04CFD2B
:1014200008BD00BFB409002008B5024801F094FDD2
:1014300008BD00BF1C0A00200120704708B502F05B
:10144000F7FF162303604FF0FF3008BD08B54FF0DB
:10145000FF31FFF7F3FFFEE710B503460C4A0D49D5
:101460000D48006840B10C4800680344521A93428A
:1014700006D8094A136010BD0748084C0460F2E71B
:1014800002F0D6FF0C2303604FF0FF30F3E700BFFC
:101490000000022000040000180A0020000B0020B9
:1014A0007047000008B51748174B03604FF4E1334D
:1014B000436000238360C36003610C224261836147
:1014C000C36103624362836202F06EFD70B9002162
:1014D0000C4802F0A9FE60B900210A4802F0C9FEDA
:1014E00050B9084802F081FE48B908BDFFF704FF73
:1014F000EDE7FFF701FFEFE7FFF7FEFEF1E7FFF78C
:10150000FBFEF2E71C0A00200038014010B59CB039
:10151000044600211791189119911A911B91542298
:1015200002A802F0AFFF22681B4B9A4201D01CB008
:1015300010BD0123029302A801F006FB40BB174B2C
:101540001A6E42F480421A661A6E02F480420092C9
:10155000009ADA6C42F00402DA64DB6C03F00403F4
:101560000193019B302317930223189300241994AD
:101570001A9407231B9317A9094800F061FD22461E
:101580002146252000F0A8F8252000F0DDF8CEE760
:10159000FFF7B2FED3E700BF003801400010024061
:1015A000000800480D488546FFF77AFF0C480D49B2
:1015B0000D4A002302E0D458C4500433C4188C42AE
:1015C000F9D30A4A0A4C002301E013600432A24214
:1015D000FBD302F033FFFFF7C9FEFEE70000022055
:1015E00000000020B4090020F8A80008B409002079
:1015F000000B0020FEE70000104B1B680BB9012018
:10160000704710B504464FF47A70B0FBF3F30C4A00
:101610001068B0FBF3F000F0A5F868B90F2C01D901
:1016200001200AE0002221464FF0FF3000F054F87C
:10163000044B1C60002000E0012010BD04000020CD
:10164000000000200800002010B5032000F032F850
:101650000F20FFF7D1FF10B10124204610BD044632
:10166000FFF7AAFEF9E70000034A13680349096877
:101670000B441360704700BFB00A00200400002034
:10168000014B1868704700BFB00A002038B5044607
:10169000FFF7F6FF0546B4F1FF3F02D0044B1B688D
:1016A0001C44FFF7EDFF401BA042FAD338BD00BF3A
:1016B00004000020074AD36823F4E0631B041B0CDA
:1016C000000200F4E060034343F0BF6343F40033DF
:1016D000D360704700ED00E000B5194BDB68C3F341
:1016E0000223C3F1070CBCF1040F28BF4FF0040C18
:1016F00003F1040EBEF1060F18D9033B4FF0FF3E75
:101700000EFA0CFC21EA0C0199400EFA03F322EACE
:101710000303194300280BDB0901C9B200F1604043
:1017200000F5614080F800135DF804FB0023E5E755
:1017300000F00F000901C9B2024B1954F4E700BFD1
:1017400000ED00E014ED00E0002807DB00F01F02D0
:10175000400901239340024A42F82030704700BFFD
:1017600000E100E00138B0F1807F0BD24FF0E023C0
:101770005861054AF02182F8231000209861072261
:101780001A6170470120704700ED00E0034690F8B1
:101790002520D2B2022A09D00422C26301200122EC
:1017A00083F82520002283F82420704701680A6806
:1017B00022F00E020A60816C0A6822F480720A60CC
:1017C00001680A6822F001020A60426C02F01F01FF
:1017D000006C01228A404260DA6C196D51605A6DCA
:1017E00042B1116821F4807111609A6DD96D516018
:1017F0000020D4E70020D2E708B590F82530DBB20E
:10180000022B09D00423C363012380F82530002272
:1018100080F82420184608BD0268136823F00E03E0
:1018200013600268136823F001031360826C13686D
:1018300023F480731360436C03F01F02016C0123D7
:1018400093404B60C36C026D5A60436D33B11A68AC
:1018500022F480721A60836DC26D5A60012380F891
:101860002530002380F82430836B13B19847002083
:10187000D1E70020CFE7000002681D4B9A422AD032
:101880001C491D4B9A4228D00164D2F8803023F4C1
:10189000F813D0F834C043EA0C43C2F8803001F1A9
:1018A000700343640268D2F8803023F07063D0F88C
:1018B00038C043EA0C63C2F8803001F1B00383649E
:1018C00001F5C473C36401F51873036501F51E7354
:1018D00043650B4607E00949D3E701F5D461D3E737
:1018E000002243F8042B01F554729A42F8D870474D
:1018F0000068004000A40040006C004050A7004079
:1019000070B54C68ECB90D698C6825430C6845EAE4
:101910008445CC690E6A44EA06648E6934434E6994
:101920003443CE6844EA0644406D03EBC30300EB46
:10193000C30E40F83350CEF804400EF1080E0020DC
:1019400019E00C698D6825430C68254345F08045F6
:10195000DFE702EB000C9CF803409CF802301B040C
:1019600043EA04639CF8014043EA0423145C2343E4
:101970004EF8043B0430CB68024CE35C8342E8D869
:1019800070BD00BF9CA40008002800F0E38038B5BB
:10199000044690F85C30D3B12268936923F01003B9
:1019A0009361FFF76DFE054623689A6912F0080FF0
:1019B00012D0FFF765FE401B0A28F5D9236E43F0CD
:1019C00001032366032384F85C30012038BD80F8CE
:1019D0005D30FFF717FCDFE79A6942F001029A6178
:1019E000FFF74EFE054623689A6912F0010F0DD1EC
:1019F000FFF746FE401B0A28F5D9236E43F001038A
:101A00002366032384F85C300120DFE79A6942F003
:101A100002029A612268504B9A4242D0237C012BE9
:101A200045D02268936943F040039361637C012BA6
:101A300043D02268936923F480439361A37C012BF4
:101A400041D02268936943F480539361226893697B
:101A500023F44073A1680B4393612268936923F0D8
:101A6000A40393612268136923F010031361E368F0
:101A7000012B2ED0002B31D0022B54D02268936939
:101A800043F0800393612268136943F010031361EC
:101A9000E368032B22D12268936943F0200393610A
:101AA0001CE06268A3F58063C3F80025B6E72268EE
:101AB000936923F040039361B8E72268936943F484
:101AC00080439361BAE72268936923F4805393615A
:101AD000BCE72268936943F004039361A3695A1E2B
:101AE000E369013B1B0243EA4263226A013A134362
:101AF0006269013A216843EA0243CB61A368B3F506
:101B0000407F16D02268D2F8C030E16B0B43C2F898
:101B1000C0302046FFF7B0FE0020A06520660123FC
:101B200084F85C3052E72268936943F020039361A4
:101B3000D4E7A36A013BE26A013A43EA0223226B3B
:101B4000013A43EA0213626A013A216843EA024316
:101B5000CB60D7E7012070470064004090F85C300C
:101B6000013BDBB2012B05D9036E43F00203036690
:101B7000012070470B687BB98A68CB68DB0643EAB3
:101B800082730A6943EA02434A691343026C496853
:101B900042F8213000207047CA680B6943EA42725C
:101BA0004B69D1F808C043EA8C73406C496800EB7C
:101BB000C10C40F83120CCF80430EBE790F85C30F1
:101BC000DBB2012B05D0036E43F004030366012052
:101BD0007047022380F85C300268936923F00103A8
:101BE0009361002303661846704738B5044690F8A1
:101BF0005C30DBB2022B1BD10368D3F8C40010F4B5
:101C0000001F05D0236E43F400732366012014E007
:101C1000D3F8C450C5F301452B462046FFF770FEAC
:101C200022680123AB40C2F8CC30A365002004E059
:101C3000036E43F008030366012038BD70B590F8C9
:101C40005C40E4B2022C40F0A28040290BD0046832
:101C5000D4F8985015F00F0F2DD1036E43F4807314
:101C60000366012098E00468D4F8905015F00F0F37
:101C700005D1036E43F48073036601208CE0D4F831
:101C80009050C5F3006C15F0807F08D0D4F88050D8
:101C9000C5F3402C15F4007F01D04FF0010CD4F8AF
:101CA0009040C4F301240CEB0405846C05EBC50CD7
:101CB00004EBCC0C1AE0D4F89850C5F3006C15F086
:101CC000807F08D0D4F88050C5F3002C15F4807FB5
:101CD00001D04FF0010CD4F89840C4F301240CEB70
:101CE0000405C46C05EBC50C04EBCC0CDCF800401F
:101CF00004F08044546074BBDCF80040C4F38A44B0
:101D00001460DCF8004004F000549460DCF80040FB
:101D100004F000441461BCF80440D461BCF80640EF
:101D200004F00F04D460DCF8044004F4801454611F
:101D3000DCF8044004F4001494619CF8074004F0BB
:101D40007F041462DCF80440E40F54620CF1080EC6
:101D50004FF0000C0BE0DCF8004024F0604414600D
:101D6000CFE71EF80C4003F80C400CF1010C0B4CB3
:101D7000D668A45D6445F4D8402904D00368C3F84C
:101D80009C50002008E00368C3F89450F9E7036E04
:101D900043F008030366012070BD00BF9CA4000847
:101DA00090F85C30013BDBB2012B05D9036E43F0A8
:101DB000020303660120704770B40468A36D11F03C
:101DC000070602D013F0010F23D011F0380F02D014
:101DD00013F0020F1DD011F4E07F02D013F0040FB6
:101DE00017D011F4F05F02D013F0080F11D011F4E6
:101DF000604F02D013F0100F0BD011F4403F02D00F
:101E000013F0200F05D011F47C0F06D013F0400F13
:101E100003D1E56D45F00105E56516B113F0010F3D
:101E200023D111F0380F02D013F0020F1DD111F49D
:101E3000E07F02D013F0040F17D111F4F05F02D04D
:101E400013F0080F11D111F4604F02D013F0100FEE
:101E50000BD111F4403F02D013F0200F05D111F443
:101E60007C0F07D013F0400F04D00468E36D43F0FB
:101E70000203E36511F0800F05D00468D4F8DC306C
:101E80001343C4F8DC3011F4807F05D00468D4F823
:101E9000E0301A43C4F8E0200268536D19435165DD
:101EA000002070BC7047704770477047704770479C
:101EB00070477047704770472DE9F84F0446036834
:101EC0001A6D02F4E05A5A6D0AEA020A1A6D02F01B
:101ED00007095A6D09EA02091A6D02F038085A6DAD
:101EE00008EA02081E6D06F471065A6D16401F6D51
:101EF00007F460275A6D1740D3F854B01D6D15F0E4
:101F0000400F02D01BF0400F41D115F4807F02D06A
:101F10001BF4807F40D1BAF1000F4AD1B9F1000F14
:101F20004FD1B8F1000F54D115F4007F02D01BF44B
:101F3000007F56D115F0800F02D01BF0800F58D1D2
:101F400015F4005F02D01BF4005F5ED115F4004F62
:101F500002D01BF4004F60D115F4804F0AD01BF45F
:101F6000804F07D023684FF480421A65236E43F0F8
:101F700080032366002F58D126B123681E65236E87
:101F80001E432666236E002B56D1BDE8F88F4022F3
:101F90001A65FFF78EFFB8E72368D3F8D810D3F897
:101FA000E0204FF48070186511402046FFF77EFF57
:101FB000B1E72368C3F850A051462046FFF773FFEE
:101FC000ACE72368C3F850904946204602F076F902
:101FD000A7E72368C3F850804146204602F088F9FD
:101FE000A2E723684FF400721A652046FFF75CFFF2
:101FF000A0E72368D3F8D410D3F8DC20802018653C
:1020000011402046FFF751FF9AE723684FF4005232
:102010001A652046FFF74BFF98E723684FF400420C
:102020001A652046FFF744FF96E723681F65394687
:102030002046FFF740FF9FE72046FFF73BFFA4E75E
:1020400070B582B0002365E085685E000324B4406B
:1020500025EA0405CC68B4402C438460446824EA33
:102060000C0C4C68C4F300149C4044EA0C0444601B
:1020700061E0DD08083550F8256003F007044FEAF9
:10208000840C0F2404FA0CF426EA040E0C6904FAFA
:102090000CF444EA0E0440F8254063E0052400E017
:1020A000002404FA0EF42C430CF1020C574D45F8B1
:1020B0002C40574CA568D44325EA0206D1F804C049
:1020C0001CF4801F01D042EA0506514DAE60ED6858
:1020D00004EA0506D1F804C01CF4001F01D042EA4E
:1020E00005064B4DEE606D6804EA0506D1F804C0A4
:1020F0001CF4003F01D042EA0506454D6E602D6894
:102100002C404E6816F4803F01D042EA0504404A54
:10211000146001330A6832FA03F474D04FF0010CF2
:102120000CFA03FC1CEA0202F3D04C6804F003042E
:10213000013C012C88D94C6804F00304032C0CD01A
:10214000C4685D004FF0030C0CFA05FC24EA0C0C8B
:102150008C68AC4044EA0C04C4604C6804F003048E
:10216000022C86D004684FEA430E4FF0030C0CFAA1
:102170000EFC24EA0C0C4C6804F0030404FA0EF480
:1021800044EA0C0404604C6814F4403FC1D0214C74
:10219000256E45F001052566246E04F001040194C6
:1021A000019C4FEA930C0CF10205184C54F8255091
:1021B00003F003044FEA840E0F2404FA0EF425EA18
:1021C0000405B0F1904F3FF46BAF134CA04212D016
:1021D00004F58064A04210D004F58064A0420ED0C3
:1021E00004F58064A0420CD004F58064A0423FF462
:1021F00055AF062455E7012453E7022451E7032491
:102200004FE704244DE702B070BD00BF000001405D
:10221000000401400010024000040048002836D1AC
:102220003E4B1B6803F4C063B3F5806F08D03B4A94
:10223000D2F8803023F48073C2F8803000207047D9
:10224000364AD2F8803023F48073C2F880301368A5
:1022500023F4C06343F400731360314B1B683222D4
:1022600002FB03F32F4AA2FB03239B0C013300E084
:10227000013B2A4A526912F4806F01D0002BF7D13A
:10228000264B5B6913F4806F44D100207047B0F592
:10229000007F08D0214A136823F4C06343F48063AD
:1022A0001360002070471D4B1B6803F4C063B3F537
:1022B000806F08D0194AD2F8803043F48073C2F896
:1022C000803000207047154AD2F8803043F4807384
:1022D000C2F88030136823F4C06343F400731360C2
:1022E0000F4B1B68322202FB03F30E4AA2FB0323AF
:1022F0009B0C013300E0013B084A526912F4806FE5
:1023000001D0002BF7D1054B5B6913F4806F03D12B
:102310000020704703207047032070470070004082
:102320000000002083DE1B43024A936843F480438D
:102330009360704700700040124BDA6802F00302AD
:10234000D868C0F30310431C032A11D00E48B0FB19
:10235000F3F00C4BDB68C3F3062303FB00F0094BDF
:10236000DB68C3F3416301335B00B0FBF3F07047FC
:102370000648B0FBF3F0034BDB68C3F3062303FB13
:1023800000F0ECE7001002400024F400006CDC02D6
:10239000002800F04F8270B582B00446036813F045
:1023A000010F37D0A44A936803F00C03D26802F0FF
:1023B00003020C2B23D0082B23D06368B3F5803F96
:1023C0004ED0B3F5A02F51D09B4B1A6822F4803227
:1023D0001A601A6822F480221A606368002B52D0B7
:1023E000FFF74EF90546944B1B6813F4003F11D1DB
:1023F000FFF746F9401B6428F5D9032023E2032A9E
:10240000D9D18D4B1B6813F4003F03D06368002BB8
:1024100000F01282236813F0020F5DD0864A9368A1
:1024200003F00C03D26802F003020C2B3AD0042B09
:102430003AD0E368002B75D07F4A136843F4807369
:102440001360FFF71DF905467B4B1B6813F4806F83
:102450005FD1FFF715F9401B0228F5D90320F2E1FF
:10246000754A136843F480331360B6E703F1804381
:10247000A3F53C331A6842F480221A601A6842F4C9
:1024800080321A60A9E7FFF7FBF805466A4B1B6824
:1024900013F4003FBED0FFF7F3F8401B6428F5D9D2
:1024A0000320D0E1022AC2D1634B1B6813F4806F72
:1024B00003D0E368002B00F0C1815F4A536823F02A
:1024C000FE43216943EA016353605C4B1868FFF7E0
:1024D00093F8002840F0B481236813F0080F4CD023
:1024E00063699BB3544AD2F8943043F00103C2F8B5
:1024F0009430FFF7C5F805464F4BD3F8943013F0EE
:10250000020F3AD1FFF7BCF8401B0228F4D9032090
:1025100099E1494A536823F0FE43216943EA016384
:102520005360D9E7444A136823F480731360FFF7BC
:10253000A7F80546404B1B6813F4806FCCD0FFF71B
:102540009FF8401B0228F5D903207CE13A4AD2F8D3
:10255000943023F00103C2F89430FFF791F8054658
:10256000354BD3F8943013F0020F06D0FFF788F8FC
:10257000401B0228F4D9032065E1236813F0040FFF
:1025800000F081802C4B9B6D13F0805F36D12A4B7D
:102590009A6D42F080529A659B6D03F080530193CF
:1025A000019B0125264B1B6813F4807F28D0A3686C
:1025B000012B39D0052B45D01F4BD3F8902022F0AA
:1025C0000102C3F89020D3F8902022F00402C3F84F
:1025D0009020A368002B43D0FFF752F80646164B15
:1025E000D3F8903013F0020F4CD1FFF749F8801B5D
:1025F00041F288339842F2D9032024E10025D1E743
:102600000F4A136843F480731360FFF739F80646E6
:102610000B4B1B6813F4807FC9D1FFF731F8801B87
:102620000228F5D903200EE1034AD2F8903043F096
:102630000103C2F89030CCE70010024008000020EF
:1026400000700040884BD3F8902042F00402C3F899
:102650009020D3F8902042F00102C3F89020B8E710
:10266000FFF70EF80646804BD3F8903013F0020FB8
:1026700008D0FFF705F8801B41F288339842F2D961
:102680000320E0E0E5B9236813F0200F35D0A369FB
:10269000E3B1754AD2F8983043F00103C2F898309C
:1026A000FEF7EEFF0546704BD3F8983013F0020F9B
:1026B00023D1FEF7E5FF401B0228F4D90320C2E036
:1026C000694A936D23F080539365DCE7664AD2F83C
:1026D000983023F00103C2F89830FEF7D1FF054689
:1026E000614BD3F8983013F0020F06D0FEF7C8FF05
:1026F000401B0228F4D90320A5E0E369002B00F079
:10270000A180594A926802F00C020C2A64D0022B74
:1027100013D0554A136823F080731360FEF7B0FF9F
:102720000446514B1B6813F0007F4ED0FEF7A8FF04
:10273000001B0228F5D9032085E04B4A136823F0DB
:1027400080731360FEF79CFF0546474B1B6813F030
:10275000007F06D0FEF794FF401B0228F5D9032026
:1027600071E0414AD36841491940236A606A0138DF
:1027700043EA0013A06A43EA0023206B40080138B3
:1027800043EA4053606B4008013843EA4063E06A23
:1027900043EAC0630B43D360136843F08073136054
:1027A000D36843F08073D360FEF76AFF04462E4B74
:1027B0001B6813F0007F06D1FEF762FF001B0228A2
:1027C000F5D903203FE000203DE0274AD168284B9F
:1027D0000B40D360002036E0012B36D0224BDB6863
:1027E00003F00301226A914231D103F0F002616AE1
:1027F0000139B2EB011F2CD103F4FE42A16AB2EB06
:10280000012F28D103F07842E16AB2EBC16F24D1E5
:1028100003F4C001226B5208013AB1EB425F1ED1B2
:1028200003F0C063626B5208013AB3EB426F18D1F8
:10283000002008E001207047012004E0012002E0B0
:10284000012000E0002002B070BD0120FBE7012064
:10285000F9E70120F7E70120F5E70120F3E7012080
:10286000F1E70120EFE700BF001002400C809F015C
:10287000FCFFEEFE1E4B9B6803F00C03042B33D0D1
:102880001B4B9B6803F00C03082B2FD0184B9B6845
:1028900003F00C030C2B01D000207047144BDA68B6
:1028A00002F00302D868C0F30310431C032A11D0BE
:1028B0001048B0FBF3F00E4BDB68C3F3062303FBB9
:1028C00000F00B4BDB68C3F3416301335B00B0FBEB
:1028D000F3F070470848B0FBF3F0054BDB68C3F337
:1028E000062303FB00F0ECE70248704702487047FC
:1028F000001002400024F400006CDC02002800F00C
:10290000E680F8B50C460546744B1B6803F00F03D0
:102910008B420BD2714A136823F00F030B431360F1
:10292000136803F00F038B4240F0D3802E6816F03B
:1029300001065FD06B68032B2FD0022B4DD0684B64
:102940001B6813F4806F00F0C680FFF793FF654BA0
:1029500098424DD9624A936823F0F00343F0800314
:10296000936080265E4A936823F0030369680B43F3
:102970009360FEF785FE0746594B9B6803F00C03F6
:102980006A68B3EB820F35D0FEF77AFEC01B41F2C6
:1029900088339842F0D9032078E0514B1B6813F03C
:1029A000007F01D1012071E0FFF7C6FC4D4B98423A
:1029B0001AD94B4B9B6813F0F00F05D02E6816F018
:1029C0000206CFD0AB688BB9454A936823F0F00379
:1029D00043F0800393608026C4E7414B1B6813F4E7
:1029E000003FB2D1012051E00026BBE70026B9E745
:1029F0000026B7E72B6813F0020F48D013F0040F3E
:102A000004D0374A936843F4E06393602B6813F073
:102A1000080F06D0324A936823F47C5343F4E063F2
:102A200093602F4A936823F0F003A9680B439360E7
:102A30002A4B1B6803F00F03A34230D82B6813F016
:102A4000040F06D0264A936823F4E063E9680B4339
:102A500093602B6813F0080F07D0214A936823F482
:102A60006053296943EAC1039360FFF703FF1C4BDE
:102A70009B68C3F303131C4AD35C03F01F03D840C5
:102A80001A4B18601A4B1868FEF7B6FDF8BD802E79
:102A9000CED1134A936823F0F0039360C8E70F4A3E
:102AA000136823F00F0323431360FEF7E9FD064686
:102AB0000A4B1B6803F00F03A342BFD0FEF7E0FDF3
:102AC000801B41F288339842F2D90320DEE70120CF
:102AD00070470120DAE70120D8E700BF002002405C
:102AE0000010024000B4C40484A4000800000020C8
:102AF00008000020014B1868704700BF000000204C
:102B000008B5FFF7F7FF054B9B68C3F30223044AA0
:102B1000D35C03F01F03D84008BD00BF0010024083
:102B200094A4000808B5FFF7E5FF054B9B68C3F3C5
:102B3000C223044AD35C03F01F03D84008BD00BF82
:102B40000010024094A40008F0B583B00446036866
:102B500013F4002F6ED0354B9B6D13F0805F1ED1A8
:102B6000324B9A6D42F080529A659B6D03F0805310
:102B70000193019B01262E4A136843F4807313606E
:102B8000FEF77EFD05462A4B1B6813F4807F08D1B3
:102B9000FEF776FD401B0228F5D9032502E000264A
:102BA000E9E7002545BB214BD3F8903013F440737F
:102BB00015D0226D9A4212D01C4AD2F8903023F4DC
:102BC0004073D2F8901041F48031C2F89010D2F8DE
:102BD000901021F48031C2F89010C2F8903013F0B8
:102BE000010F10D145B9114AD2F8903023F4407347
:102BF000216D0B43C2F89030EEB10C4A936D23F077
:102C00008053936517E0FEF73BFD0746074BD3F86B
:102C1000903013F0020FE5D1FEF732FDC01B41F2F8
:102C200088339842F2D90325DCE700BF0010024048
:102C3000007000400025236813F0010F08D09F4A60
:102C4000D2F8883023F0030361680B43C2F8883060
:102C5000236813F0020F08D0984AD2F8883023F086
:102C60000C03A1680B43C2F88830236813F0040FEB
:102C700008D0924AD2F8883023F03003E1680B4341
:102C8000C2F88830236813F0080F08D08B4AD2F8B6
:102C9000883023F0C00321690B43C2F888302368D1
:102CA00013F0100F08D0854AD2F8883023F440730F
:102CB00061690B43C2F88830236813F0200F08D0F5
:102CC0007E4AD2F8883023F44063A1690B43C2F8EE
:102CD0008830236813F0400F08D0784AD2F8883043
:102CE00023F44053E1690B43C2F88830236813F0A2
:102CF000800F08D0714AD2F8883023F44043216A0B
:102D00000B43C2F88830236813F4807F08D06B4AE5
:102D1000D2F8883023F44033616A0B43C2F888301C
:102D2000236813F4003F08D0644AD2F89C3023F0A3
:102D30000303A16A0B43C2F89C30236813F4007F9D
:102D400008D05E4AD2F8883023F44023E16A0B436E
:102D5000C2F88830236813F4806F0CD0574AD2F839
:102D6000883023F44013216B0B43C2F88830236B67
:102D7000B3F5801F79D0236813F4006F0CD04F4A4D
:102D8000D2F8883023F44003616B0B43C2F88830DB
:102D9000636BB3F5800F6DD0236813F4805F0CD0A4
:102DA000464AD2F8883023F04073A16B0B43C2F837
:102DB0008830A36BB3F1807F61D0236813F4005F88
:102DC0000CD03E4AD2F8883023F04063E16B0B43CD
:102DD000C2F88830E36BB3F1006F55D0236813F469
:102DE000804F0CD0354AD2F8883023F04063216CF4
:102DF0000B43C2F88830236CB3F1006F49D02368CD
:102E000013F4004F0CD02D4AD2F8883023F04053F1
:102E1000616C0B43C2F88830636CB3F1805F3DD0C6
:102E2000236813F4803F0CD0244AD2F8883023F072
:102E30004043A16C0B43C2F88830A36CB3F1804FC0
:102E400031D0236813F4802F0CD01C4AD2F89C3068
:102E500023F44013E16C0B43C2F89C30E36CB3F5F0
:102E6000001F25D0284603B0F0BDD36843F480137B
:102E7000D36080E7D36843F48013D3608CE7D368D2
:102E800043F48013D36098E7D36843F48013D3608E
:102E9000A4E7D36843F48013D360B0E7D36843F466
:102EA0008033D360BCE7D36843F48033D360C8E792
:102EB000D36843F48013D360D4E700BF001002400E
:102EC000026852E8003F23F4907342E80031002981
:102ED000F6D1026802F1080353E8003F23F0805363
:102EE00023F00103083242E800310029F1D1C36E1A
:102EF000012B06D02023C0F88C300023C366436723
:102F00007047026852E8003F23F0100342E80031A6
:102F10000029F6D1EEE7704708B5026852E8003F95
:102F200023F0400342E800310029F6D12023C0F805
:102F3000883000238367FFF7EEFF08BD70477047B6
:102F400008B5806A0023A0F85E30A0F85630FFF77D
:102F5000F6FF08BD7047000070B504460168CB69F4
:102F600008688D6840F60F021A4008D113F0200F50
:102F700005D010F0200F34D115F0805F31D12AB187
:102F8000A04A2A4033D1A04E304230D1E26E012A0D
:102F900000F0C68013F4801F03D015F4800F40F0BA
:102FA000738113F0800F07D010F0800F40F0738111
:102FB00015F4000F40F06F8113F0400F03D010F0B4
:102FC000400F40F06F8113F4000F03D010F0804FDA
:102FD00040F06C8113F0807F02D00028C0F26A813B
:102FE00070BD636F002BFBD020469847F8E713F0C5
:102FF000010F09D010F4807F06D001260E62D4F8AC
:1030000090103143C4F8901013F0020F0BD015F05C
:10301000010F08D0216802260E62D4F8901041F00A
:103020000401C4F8901013F0040F0BD015F0010F39
:1030300008D0216804260E62D4F8901041F00201F5
:10304000C4F8901013F0080F0BD010F0200F00D12F
:103050003AB1226808211162D4F890200A43C4F8DA
:10306000902013F4006F0CD010F0806F09D022680C
:103070004FF400611162D4F8902042F02002C4F8AD
:103080009020D4F89020002AAAD013F0200F09D065
:1030900010F0200F02D115F0805F03D0636F0BB1E9
:1030A00020469847D4F8902023689B6813F0400F7F
:1030B00002D112F0280F2CD02046FFF701FF236821
:1030C0009B6813F0400F20D0226802F1080353E8F8
:1030D000003F23F04003083242E800310029F3D1D9
:1030E000D4F880306BB1494A9A63D4F88000FEF777
:1030F00083FB00283FF474AFD4F88000836B9847BB
:103100006EE72046FFF71BFF6AE72046FFF717FF31
:1031100066E72046FFF713FF0023C4F890305FE70F
:1031200013F0100F3FF436AF10F0100F3FF432AF32
:1031300010230B6223689B6813F0400F68D0D4F80B
:1031400080100A6853689BB2002B4AD0B4F85C0028
:10315000984246D9A4F85E300B681B6813F0200F24
:1031600032D1226852E8003F23F4807342E80031F4
:103170000029F6D1226802F1080353E8003F23F04A
:103180000103083242E800310029F3D1226802F13C
:10319000080353E8003F23F04003083242E80031BF
:1031A0000029F3D12023C4F88C300023E366226881
:1031B00052E8003F23F0100342E800310029F6D125
:1031C000D4F88000FEF7E2FA02232367B4F85C101B
:1031D000B4F85E309BB2C91A89B22046FFF7BAFE36
:1031E000FEE6B4F85C1099427FF4FAAE136813F06F
:1031F000200F3FF4F5AE022323672046FFF7AAFE17
:10320000EEE600BF0100001020010004412F00087D
:10321000B4F85C10B4F85E309BB2C91A89B2B4F845
:103220005E309BB2002B3FF4DBAE00293FF4D8AEFA
:10323000226852E8003F23F4907342E800300028EF
:10324000F6D1226802F1080353E8003F23F08053CF
:1032500023F00103083242E800300028F1D1202396
:10326000C4F88C300023E3666367226852E8003FAD
:1032700023F0100342E800300028F6D10223236730
:103280002046FFF767FEABE64FF480130B62204643
:1032900000F0A8FFA4E6A36F002B3FF4A1AE2046E8
:1032A00098479DE62046FFF737FE99E6204600F056
:1032B0009BFF95E6204600F096FF91E608B5B0F832
:1032C0006030D0F88C20222A05D00268936943F040
:1032D0000803936108BD0268516ADBB2826D0B403E
:1032E0001370836D01338365B0F85E309BB2013B90
:1032F0009BB2A0F85E30B0F85E309BB2002BE9D1F3
:10330000026852E8003F23F4907342E8003100293C
:10331000F6D1026802F1080353E8003F23F00103ED
:10332000083242E800310029F3D12023C0F88C3064
:103330000023436703670368164A93420CD05B6817
:1033400013F4000F08D0026852E8003F23F08063B6
:1033500042E800310029F6D1C36E012B16D10023BB
:10336000C366026852E8003F23F0100342E80031D0
:103370000029F6D10368DA6912F0100F01D010228B
:103380001A62B0F85C10FFF7E5FDA3E7FFF7D6FD82
:10339000A0E700BF0080004008B5B0F86020D0F87A
:1033A0008C30222B05D00268936943F008039361A7
:1033B00008BD03685B6A816D13400B80836D023327
:1033C0008365B0F85E309BB2013B9BB2A0F85E30E3
:1033D000B0F85E309BB2002BEAD1026852E8003FA1
:1033E00023F4907342E800310029F6D1026802F11B
:1033F000080353E8003F23F00103083242E800319C
:103400000029F3D12023C0F88C30002343670367E1
:103410000368164A93420CD05B6813F4000F08D07F
:10342000026852E8003F23F0806342E8003100293F
:10343000F6D1C36E012B16D10023C366026852E891
:10344000003F23F0100342E800310029F6D1036861
:10345000DA6912F0100F01D010221A62B0F85C1075
:10346000FFF778FDA4E7FFF769FDA1E700800040C2
:103470002DE9F843B0F860500368D3F81C90D3F8F6
:1034800000809F68D0F88C20222A05D09A6942F0EB
:1034900008029A61BDE8F8830446B0F8686008E065
:1034A000D4F89030002B4DD1B4F85E309BB2002B95
:1034B0004FD0002E00F0958019F0200F00F0918081
:1034C0002368596AEBB2A26D0B401370A36D0133F0
:1034D000A365B4F85E309BB2013B9BB2A4F85E30AA
:1034E0002368D3F81C9019F0070FDDD019F0010FF5
:1034F00009D018F4807F06D001221A62D4F89030E7
:103500001343C4F8903019F0020F0BD017F0010FDD
:1035100008D0236802221A62D4F8903043F00403E2
:10352000C4F8903019F0040FBAD017F0010FB7D0DB
:10353000236804221A62D4F8903043F00203C4F8DE
:103540009030ADE72046FFF7FAFC0023C4F8903036
:10355000AAE7226852E8003F23F4807342E8003172
:103560000029F6D1226802F1080353E8003F23F056
:10357000805323F00103083242E800310029F1D1E1
:103580002023C4F88C300023636723672368284A0C
:1035900093420CD05B6813F4000F08D0226852E805
:1035A000003F23F0806342E800310029F6D1E36E4A
:1035B000012B39D10023E366226852E8003F23F053
:1035C000100342E800310029F6D12368DA6912F0CD
:1035D000100F01D010221A62B4F85C102046FFF7D9
:1035E000B9FCB4F85E309BB2002B3FF453AFB4F893
:1035F00068209A427FF64EAF226802F1080353E832
:10360000003F23F08053083242E800310029F3D113
:10361000084B6367226852E8003F43F0200342E80A
:1036200000310029F6D135E72046FFF787FCD8E7BF
:1036300000800040BD3200082DE9F843B0F860502A
:103640000368D3F81C90D3F800809F68D0F88C20D2
:10365000222A05D09A6942F008029A61BDE8F883EF
:103660000446B0F8686008E0D4F89030002B4CD1E4
:10367000B4F85E309BB2002B4ED0002E00F0948048
:1036800019F0200F00F0908023685B6AA26D2B4038
:103690001380A36D0233A365B4F85E309BB2013B87
:1036A0009BB2A4F85E302368D3F81C9019F0070F82
:1036B000DED019F0010F09D018F4807F06D0012266
:1036C0001A62D4F890301343C4F8903019F0020F06
:1036D0000BD017F0010F08D0236802221A62D4F829
:1036E000903043F00403C4F8903019F0040FBBD0BD
:1036F00017F0010FB8D0236804221A62D4F8903072
:1037000043F00203C4F89030AEE72046FFF717FC01
:103710000023C4F89030ABE7226852E8003F23F45E
:10372000807342E800310029F6D1226802F10803D3
:1037300053E8003F23F0805323F00103083242E8AE
:1037400000310029F1D12023C4F88C3000236367B5
:1037500023672368284A93420CD05B6813F4000F58
:1037600008D0226852E8003F23F0806342E800312D
:103770000029F6D1E36E012B39D10023E3662268DC
:1037800052E8003F23F0100342E800310029F6D14F
:103790002368DA6912F0100F01D010221A62B4F80F
:1037A0005C102046FFF7D6FBB4F85E309BB2002BCE
:1037B0003FF454AFB4F868209A427FF64FAF2268C6
:1037C00002F1080353E8003F23F08053083242E837
:1037D00000310029F3D1094B6367226852E8003FAA
:1037E00043F0200342E800310029F6D136E72046B5
:1037F000FFF7A4FBD8E700BF008000409933000822
:1038000070B5044601688368026913434269134333
:10381000C26913430868964A024013430B6022684A
:10382000536823F44053E1680B435360A169226855
:10383000904B9A4201D0236A1943936823F06E4358
:1038400023F430630B4393602268D36A23F00F03A1
:10385000616A0B43D3622368874A934210D0874A38
:10386000934221D0864A934237D0864A93425CD015
:10387000854A93426BD07F4A93427DD010223AE032
:1038800002F55842D2F8882002F00302032A09D830
:10389000DFE802F00204870601222CE004222AE07D
:1038A000082228E0102226E002F5E632D2F888202D
:1038B00002F00C020C2A0ED8DFE802F0070D0D0D05
:1038C000090D0D0D750D0D0D0B00002213E00422E6
:1038D00011E008220FE010220DE002F5E432D2F8E8
:1038E000882002F03002202A5FD01AD8002A5ED049
:1038F000102A5ED104225F498B4276D0E069B0F590
:10390000004F00F0C980082A00F23481DFE812F08D
:10391000F7001901F50032011C01320132013201B8
:103920001F01302A47D10822E5E702F5E232D2F83A
:10393000882002F0C002802A3FD004D8FAB3402A7F
:103940003FD10422D7E7C02A3DD10822D3E702F5B0
:10395000E032D2F8882002F44072B2F5007F34D011
:1039600005D8A2B3B2F5807F33D10422C3E7B2F504
:10397000407F30D10822BEE702F5C832D2F8882055
:1039800002F44062B2F5006F27D005D83AB3B2F521
:10399000806F26D10422AEE7B2F5406F23D1082212
:1039A000A9E70222A7E70222A5E70222A3E7002255
:1039B000A1E710229FE710229DE702229BE7002249
:1039C00099E7102297E7102295E7022293E7002259
:1039D00091E710228FE710228DE702228BE7002269
:1039E00089E7102287E7102285E7082A00F2B280D3
:1039F000DFE802F008B03BB038B0B0B005004FF4DB
:103A0000004004E0FFF77CF8002800F0A580626A1F
:103A10001E4B33F81220B0FBF2F3656805EB45014D
:103A2000994200F29B80B3EB053F00F2998000269B
:103A300033463146FCF7E4FB090241EA106100021B
:103A40006B08C0182A46334641F10001FCF7D8FB49
:103A5000A0F540720E4B9A4200F284802368D86031
:103A6000304665E0FEF706FFCEE70A48CFE700BF25
:103A7000F369FFCF0080004000380140004400405F
:103A800000480040004C004000500040ACA400083A
:103A9000FFFC0F000024F400082A65D8DFE802F0DC
:103AA000072705642A6464640B00354803E0FFF7C8
:103AB00027F800285AD0626A324B33F81230B0FB34
:103AC000F3F06268530803EB4000B0FBF2F0A0F1A2
:103AD00010024FF6EF739A424AD883B223F00F03D5
:103AE000C0F3420018432368D860002020E0FFF7AD
:103AF00019F8DEE7FEF7BEFEDBE7214803E0FEF73C
:103B0000FFFF002838D0626A1E4B33F81230B0FB3A
:103B1000F3F0636800EB5300B0FBF3F0A0F1100288
:103B20004FF6EF739A4229D8236880B2D8600020FC
:103B30000123A4F86A30A4F8683000236367A36700
:103B400070BDFEF7EFFFDCE7FEF794FED9E74FF418
:103B50000040D8E70120EBE70020E9E70120E7E794
:103B60000120E5E70120E3E70120E1E70020DFE7AE
:103B70000120DDE70120DBE70020D9E70120D7E7BE
:103B80000024F400ACA40008836A13F0080F06D0E8
:103B90000268536823F40043816B0B435360836ACC
:103BA00013F0010F06D00268536823F40033C16A92
:103BB0000B435360836A13F0020F06D00268536808
:103BC00023F48033016B0B435360836A13F0040FBB
:103BD00006D00268536823F48023416B0B43536083
:103BE000836A13F0100F06D00268936823F48053A1
:103BF000C16B0B439360836A13F0200F06D00268F9
:103C0000936823F40053016C0B439360836A13F0B1
:103C1000400F0AD00268536823F48013416C0B43B1
:103C20005360436CB3F5801F0BD0836A13F0800F91
:103C300006D00268536823F40023C16C0B43536021
:103C400070470268536823F4C003816C0B435360D0
:103C5000EBE72DE9F84305460E4617469946DDF891
:103C600020802C68E46936EA04030CBF4FF0010C95
:103C70004FF0000CBC4536D1B8F1FF3FF1D0FDF755
:103C8000FFFCA0EB0900404530D8B8F1000F2FD061
:103C90002B681A6812F0040FE3D0802EE1D0402E7A
:103CA000DFD0DA6912F0080F11D1DA6912F4006F6F
:103CB000D7D04FF400621A622846FFF701F920239B
:103CC000C5F89030002385F8843003200CE00824E8
:103CD0001C622846FFF7F4F8C5F89040002385F8E9
:103CE0008430012000E00020BDE8F8830320FBE7DA
:103CF0000320F9E72DE9F04182B01E46D0F8883064
:103D0000202B5AD104460D469046002959D00AB9B5
:103D1000012053E00023C0F890302123C0F8883000
:103D2000FDF7AEFC0746A4F85480A4F85680A368BB
:103D3000B3F5805F02D04FF0000816E0236943B36B
:103D40004FF0000811E02023C4F88830032035E04C
:103D500038F8023B2268C3F308039362B4F8562094
:103D600092B2013A92B2A4F85620B4F856309BB2FF
:103D700093B100963B46002280212046FFF769FF61
:103D80000028E0D1002DE3D015F8012B23689A62BA
:103D9000E4E7A8460025E8E700963B4600224021DC
:103DA0002046FFF756FF18B92023C4F8883005E0F5
:103DB0002023C4F88830032000E0022002B0BDE8D0
:103DC000F0810120FAE72DE9F04383B01E46D0F8D8
:103DD0008C30202B7DD104460D46904600297CD0A6
:103DE0000AB9012076E00023C0F890302222C0F802
:103DF0008C20C366FDF744FC0746A4F85C80A4F859
:103E00005E80A368B3F5805F06D0A3B9226972B95A
:103E1000FF22A4F8602014E0226922B940F2FF12C8
:103E2000A4F860200DE0FF22A4F8602009E07F22C2
:103E3000A4F8602005E0B3F1805F0AD00022A4F866
:103E40006020B4F86080B3F5805F0CD04FF00009BB
:103E500023E022691AB97F22A4F86020F1E73F220B
:103E6000A4F86020EDE7236913B14FF0000914E0D6
:103E7000A946002511E02023C4F88C30032029E056
:103E800023685B6A08EA030329F8023BB4F85E2062
:103E900092B2013A92B2A4F85E20B4F85E309BB2BE
:103EA00093B100963B46002220212046FFF7D1FE29
:103EB0000028E0D1002DE3D023685A6A5FFA88F326
:103EC000134005F8013BE1E72023C4F88C300020C3
:103ED00000E0022003B0BDE8F0830120FAE730B52E
:103EE00083B004460023C0F89030FDF7C9FB0546B7
:103EF0002268126812F0080F10D123681B6813F0B3
:103F0000040F28D12023C4F88830C4F88C30002056
:103F1000E066206784F8840003B030BD6FF07E4314
:103F20000093034600224FF400112046FFF791FE54
:103F30000028E2D0226852E8003F23F0800342E8E4
:103F400000310029F6D12023C4F88830002384F8FA
:103F500084300320E0E76FF07E4300932B4600227D
:103F60004FF480012046FFF774FE0028CAD0226873
:103F700052E8003F23F4907342E800310029F6D163
:103F8000226802F1080353E8003F23F001030832DE
:103F900042E800310029F3D12023C4F88C300023FB
:103FA00084F884300320B7E778B310B50446D0F81E
:103FB00088300BB32423C4F888302268136823F0B8
:103FC00001031360A36AE3B92046FFF719FC012837
:103FD00011D02268536823F4904353602268936899
:103FE00023F02A0393602268136843F001031360EF
:103FF0002046FFF774FF10BD80F88430FDF786FA85
:10400000D8E72046FFF7C0FDDEE70120704700003B
:1040100010B48165A0F85C20A0F85E2000234367FF
:104020008368B3F5805F06D0A3B9036973B9FF2332
:10403000A0F8603014E0036923B940F2FF13A0F840
:1040400060300DE0FF23A0F8603009E07F23A0F886
:10405000603005E0B3F1805F2DD00023A0F8603020
:104060000023C0F890302223C0F88C30016801F1A1
:10407000080353E8003F43F00103083141E80034EE
:10408000002CF3D1436EB3F1005F1ED08368B3F50B
:10409000805F42D0294B43670369002B43D00268FD
:1040A00052E8003F43F4907342E800310029F6D112
:1040B000002010BC704703691BB97F23A0F8603053
:1040C000CEE73F23A0F86030CAE7B0F868309342EB
:1040D000DCD88368B3F5805F19D0194B4367036957
:1040E00043B1026852E8003F43F4807342E8003174
:1040F0000029F6D1026802F1080353E8003F43F0BB
:104100008053083242E800310029F3D1D0E7036937
:10411000002BE2D10B4B4367E1E70369002BB9D1D8
:10412000094B4367B8E7026852E8003F43F02003B9
:1041300042E800310029F6D1BAE700BFBD320008DD
:1041400071340008393600089933000838B5D0F8C2
:104150008C30202B17D1C1B1CAB10023C3660368CC
:104160000C4CA3420CD05B6813F4000F08D0046819
:1041700054E8003F43F0806344E80035002DF6D159
:10418000FFF746FF00E0022038BD0120FCE70120D8
:10419000FAE700BF00800040436E2BB90123A0F86E
:1041A0006A30A0F86830704730B403689A68C2F388
:1041B00042629968490F094D6B5CDB00084C615CF9
:1041C00093FBF1F3A0F86A30AB5CDB00A25C93FBDD
:1041D000F2F3A0F8683030BC704700BFCCA40008F0
:1041E000C4A4000870477047704790F88430012BD2
:1041F00018D0012380F884302423C0F88830036865
:104200001A68196821F00101196022F00052002398
:10421000436601680A602022C0F8882080F8843054
:10422000184670470220704738B590F88430012B4B
:104230001DD00446012380F884302423C0F8883040
:1042400003681D681A6822F001021A600268936808
:1042500023F0604319439160FFF79EFF23681D60C0
:104260002023C4F88830002084F8840038BD022060
:10427000FCE738B590F88430012B1DD004460123AB
:1042800080F884302423C0F8883003681D681A68D9
:1042900022F001021A600268936823F060631943F8
:1042A0009160FFF779FF23681D602023C4F88830F0
:1042B000002084F8840038BD0220FCE702680A4B25
:1042C0009A4200D0704700B58DB06B4602AA4021DB
:1042D000FDF7B4FC9DF800200299044800F024F991
:1042E0000DB05DF804FB00BF00640040D4A40008DA
:1042F0000268074B9A4200D0704700B58DB06B46FC
:1043000002AA4121FDF79AFC0DB05DF804FB00BF45
:104310000064004010B50B4C204600F019F8012253
:1043200009492046FFF712FF084C2046FCF7EAFE39
:1043300022234FF4917240F211112046FCF7FBFE4C
:1043400010BD00BF1C0A0020B40A0020B4090020E0
:1043500008B5054B1860054B186800230222194662
:10436000806800F0F5F808BDB80A00200C000020B5
:10437000022801D80120704708B500F059F8092338
:104380000360002008BD000010B5013801280AD8DC
:1043900014464FF47A7392B207480068FFF7AAFCFC
:1043A00040B9204610BD00F043F8092303604FF0E8
:1043B000FF30F7E70520F5E7B80A0020022801D80A
:1043C0000020704708B500F033F8092303604FF070
:1043D000FF3008BD08B500F02BF8092303604FF04B
:1043E000FF3008BD08B548B94FF47A730122084878
:1043F0000068FFF7E8FC40B9012008BD00F018F89C
:10440000092303604FF0FF30F7E70520F5E700BF11
:10441000B80A002008B5022804D84FF400534B60B6
:10442000002008BD00F004F809230360F8E700004D
:10443000014B1868704700BF0C00002070B50D4E8E
:104440000D4D761BB61006D0002455F8043B013400
:104450009847A642F9D1094E094D761B06F000F89F
:10446000B61006D0002455F8043B01349847A64204
:10447000F9D170BD00000000000000000000000045
:1044800000000000830730B548D0541E002A3FD0FA
:10449000CAB2034601E0013C3AD303F8012B9D0761
:1044A000F9D1032C2DD9CDB245EA05250F2C45EACB
:1044B000054536D9A4F1100222F00F0C03F1200EAD
:1044C000E6444FEA121C03F1100242E9045542E9A6
:1044D000025510327245F8D10CF1010214F00C0FA4
:1044E00003EB021204F00F0C13D0ACF1040323F021
:1044F00003030433134442F8045B9342FBD10CF0F2
:1045000003042CB1CAB21C4403F8012B9C42FBD11A
:1045100030BD64461346002CF4D1F9E70346144637
:10452000BFE71A46A446E0E70FB400B5074983B0D9
:1045300004AB086853F8042B8168019300F0E0F89D
:1045400003B05DF804EB04B0704700BF0C0000201E
:104550002DE9F043694CD4F8008083B004460E4640
:1045600017461D46B8F1000F03D0D8F83830002B9D
:1045700077D0022F05D0012F00F2AC80002DC0F2C1
:10458000A980636EDA0752D52146404602F052FFF9
:10459000216B41B104F14003994202D0404603F03F
:1045A0005FF800232363B4F90CC000231CF0800FD4
:1045B000A361636064D12CF44A6C2CF0030C022FCD
:1045C000A4F80CC06AD001AB6A462146404603F00D
:1045D000EDF9A3891843A081002D2FD0002E2ED0F5
:1045E000D8F83830002B38D0009B2660AB42B4F9A5
:1045F0000C301CBF43F40063A381012F04BF43F0C0
:104600000103A3819AB213F00803C4E904652CD016
:10461000D1075DD56D42A561656E002315F00105DA
:10462000A36027D00025284603B0BDE8F083A38906
:104630009B05A9D4A06D03F045F9A5E7009D284688
:1046400003F0E4F90646002847D0A38943F080032D
:10465000A381D8F83830002BC6D1404602F01EFFA7
:10466000C2E7404602F01AFF83E7A360656E15F0CB
:104670000105D7D1930524D5284603B0BDE8F083C2
:104680002169404602F0ECFFB4F90CC02CF44A6CEE
:104690002CF0030C022FA4F80CC094D100250022AA
:1046A00004F14303A2600122C4E904322360636E73
:1046B0004CF0020CD807A4F80CC0DDD41CF4007F29
:1046C000DAD1A06D03F000F9284603B0BDE8F0830D
:1046D000A560CBE74FF0FF35CEE7DDF80090A945A8
:1046E00004D0484603F092F9064620B9B4F90CC04C
:1046F0004FF0FF35D3E74D46A7E700BF0C00002081
:104700002DE9F04FD5B01C4607919146054609901A
:1047100003F0D0F80268179210460E94FBF7F0FFF2
:1047200016901DB1AB6B002B00F02A82079A536ED6
:10473000DD0740F13881B2F90C2091B28F0409D421
:10474000079B42F400529A8191B21A465B6E23F4A1
:10475000005353660E0740F1CB80079B1B69002B6B
:1047600000F0C68001F01A030A2B00F0CF8000246D
:104770002BAB4D46CDE92944CDE91944CDE91B4485
:10478000129428939846189400230B940024CDE9A2
:1047900014342B78002B00F09D81AA4604E01AF80F
:1047A000013F002B00F0C780252BF8D1BAEB05069E
:1047B00040F0C5809AF80030002B00F08B81002378
:1047C0004FF0FF329AF801608DF883300A930AF1B6
:1047D000010A08921F462B244FF020090AF1010A12
:1047E000A6F120035A2B00F2ED80DFE813F0EB0274
:1047F000EB00EB00E602EB00EB00EB006A00EB00E5
:10480000EB005C028002EB0067028A02EB0085028B
:104810005B005B005B005B005B005B005B005B00C0
:104820005B00EB00EB00EB00EB00EB00EB00EB00C0
:104830007A01EB00F801D2017A017A017A01EB00EA
:10484000EB00EB00EB00E102EB00EB002D02EB00D4
:10485000EB00EB000202EB00A402EB00EB0083078D
:10486000EB00EB00EB00EB00EB00EB00EB00EB00F0
:104870007A01EB00F801D4017A017A017A01C702CA
:10488000D401CD01EB00D402EB006C022F02B50283
:10489000CD01EB0002027E008007EB00EB00610718
:1048A000EB007E00A6F1300300221AF8016B02EB48
:1048B000820203EB4202A6F13003092BF5D90A92DA
:1048C0008EE7DDF824B0584602F0F4FF43681B93EE
:1048D0001846FBF715FF1C900646584602F0EAFF03
:1048E00083681993002E40F0CD869AF8006075E732
:1048F000079D0998294601F0ADFC002841F01C8372
:10490000A98901F01A030A2B7FF431AF079AB2F993
:104910000E30002BFFF62BAF536ED80702D489055B
:1049200041F13B810799099823464A4655B0BDE8B5
:10493000F04F01F04FBCBAEB050600F0CB802A9B8C
:1049400033442A93299B0133072BC8E90056299346
:1049500005DC08F108080B9B33440B932AE7079901
:10496000099828AA03F0BEFF80B90DF1AC08F2E760
:104970000799099828AA03F0B5FF002800F09B804A
:104980000D9B1BB10998194602F06AFE079A536EF7
:10499000D90740F1EA8093895B0601F1D9820B982F
:1049A00055B0BDE8F08F079BB3F90C20900591B28C
:1049B0003FF5C4AE1D46986D02F084FFB5F90C209A
:1049C00091B2BBE6002E00F0858000228DF8EC60ED
:1049D0008DF883200123CDE90C32069308920F92C3
:1049E000139210923BAD17F0020302D006990231E8
:1049F000069117F0840B07D10A990698A1EB0009DC
:104A0000B9F1000F00F370832A9C8AB1299A0DF145
:104A1000830101320134C8F80010072A4FF0010168
:104A20002A942992C8F8041000F3B68308F1080804
:104A300083B1299B21AA01330234C8F80020072B37
:104A40004FF002022A942993C8F8042000F3B2839D
:104A500008F10808BBF1800F00F06982089B0C9AEE
:104A6000A3EB020BBBF1000F00F3AA82FB0500F1E0
:104A700000820C9BC8F804301C44299BC8F80050E5
:104A80000133072B2A94299300F3228308F10808A5
:104A9000780705D50A9B069A9D1A002D00F3968388
:104AA000DDE90A2306998A42ACBF9B185B180B9379
:104AB000002C7FF45DAF002329930D9B1BB10D9952
:104AC000099802F0CDFD0DF1AC0855462B78002B6E
:104AD0007FF463AE2A9B002B41F0D38100232993FE
:104AE00054E70E9B073323F00702F2E80234CDE9C6
:104AF0001434DDE9143424F000440E92994618462B
:104B00002146B54B4FF0FF32FCF7BEFA002840F0CB
:104B1000EF84B14B484621464FF0FF32FCF796FA3E
:104B2000002840F0E584DDE9140100220023FCF7B1
:104B300083FA002840F067879DF88320A74DA84B93
:104B400027F080070321472EC8BF1D4600230D9381
:104B500006910C9108930F9313931093002A3FF43E
:104B600042AF069B013306933DE7079B9B899A055D
:104B70003FF512AF079CA06D02F0A6FEA3890BE7DC
:104B8000099802F08BFCD1E59AF8006047F0200705
:104B900024E647F01007BA060E9B40F13B8407332A
:104BA00023F007031A465B6852F8084B0E929946A9
:104BB000002BC0F24C84089B013300F0D88254EAE9
:104BC000090327F0800B40F0D382089B002B40F0B4
:104BD000D4825F46002308930C9354AD1DE10E9BD5
:104BE000002253F8041B8DF883208DF8EC100E93EF
:104BF000F0E60E9C089B54F8045B4FF000098DF81A
:104C00008390002D00F093855A1C00F051861A46BF
:104C100049462846FBF77CFC0D90002801F00E81E8
:104C20000D9BCDF820905B1B0C930E9423EAE3734D
:104C30009DF883200693CDF83490CDF83C90CDF8C4
:104C40004C90CDF8409089E747F0100717F0200905
:104C500000F0D2830E9B073323F00703D3F80490B0
:104C600053F8084B0E9327F4806B002300228DF835
:104C70008320089A511C00F0B88054EA09012BF0F7
:104C8000800740F0B180002A40F0F685002BA1D1CA
:104C90001BF001030C9300F0148430238DF84F3186
:104CA0000DF24F15B9E00E9B53F8042B0A92002A1F
:104CB00080F2DA830A9A0E9352420A929AF80060BE
:104CC00047F004078AE5BD0600F1D184FC0600F137
:104CD000D885780600F1A586B90540F1D2850E9BEE
:104CE0000B9953F8042B0E9311705546EEE69AF883
:104CF00000608DF8834071E59AF8006047F0800706
:104D00006CE5524612F8016B2A2E01F03F82A6F1A3
:104D10003003092B924698BF002201F2BC801AF89A
:104D2000016B02EB820203EB4202A6F13003092B76
:104D3000F5D9089254E547F0100B1BF0200900F05C
:104D400076830E9B073323F00703D3F8049053F8C0
:104D5000084B0E93012389E70E9B53F8044B0E93E7
:104D6000302378268DF884301E4B189347F0020BC1
:104D70008DF885604FF00009022377E79AF800600C
:104D8000682E03BF9AF8016047F400770AF1010A20
:104D900047F0400722E59AF800606C2E03BF9AF8AE
:104DA000016047F020070AF1010A47F0100715E5F6
:104DB0009AF8006047F0080710E59AF8006047F09D
:104DC00001070BE59DF88330002B7FF48EAD9AF838
:104DD00000608DF8839001E5FFFFEF7FF4A40008E9
:104DE000F8A4000804A50008BB46012B00F0C08110
:104DF000022B54AD20D1189A04F00F032409D35C80
:104E000005F8013D44EA09744FEA191954EA090307
:104E1000F2D154AB5B1B5F460C9308990C989DF83C
:104E2000832081424FF00003B8BF01460D930691E5
:104E30000F931393109391E604F00703E40844EAF8
:104E400049744FEAD909303354EA09012A4605F872
:104E5000013DF1D11BF0010FDBD0302BD9D0302335
:104E6000023A05F8013C54AB9B1A5F460C93154679
:104E7000D3E7652E40F3E680DDE91401002200232C
:104E8000FCF7D0F8002800F0DC81299BBF4AC8F865
:104E90000020013301340122072B2A942993C8F8FA
:104EA000042000F3CC8408F10808229B129A934254
:104EB00080F2D682169B179A1C44C8E90023299BCE
:104EC0002A940133072B299300F3248408F108085E
:104ED000129B5D1E002D7FF7DBAD102D299BDFF8A7
:104EE000B09240F3BD8449462246B946DDF824B06D
:104EF000079C10260F4605E008F10808103D102D0C
:104F000040F3AA8401331032072BC8E90076CDE9BB
:104F10002932F1DD28AA2146584603F0E3FC002897
:104F20007FF42EADDDE929320DF1AC08E6E70A9BEE
:104F3000069AA3EB020BBBF1000F7FF78FADBBF11D
:104F4000100F299ADFF848922CDD1D9621464E4617
:104F5000079CDDF82490102306E0ABF1100BBBF1A9
:104F6000100F08F108081ADD01321031072AC8E9CC
:104F70000063CDE92921F0DD28AA214648460DF13C
:104F8000AC0803F0AFFC00287FF4FAACABF1100BD7
:104F9000BBF1100FDDE929214FF01003E4DCB1462D
:104FA0001D9E0C4601325C44072ACDE92924C8F82D
:104FB0000090C8F804B000F3A08308F108084DE59C
:104FC000BBF1100F299ADFF8C8912DDD414620462C
:104FD000A8464C46079DDDF82490102306E0ABF16F
:104FE000100BBBF1100F01F1080119DD0132103077
:104FF000072AC1E90043CDE92920F0DD28AA294686
:10500000484603F06FFC00287FF4BAACABF1100BFC
:10501000BBF1100FDDE929202BA94FF01003E5DCCF
:105020004546A1468846044601325C44072ACDE93C
:105030002924C8F80090C8F804B000F3D08108F122
:10504000080813E5129B012B40F38081299EC8F8C4
:105050000050013601340123072E2A942996C8F8FE
:10506000043000F37C8308F10808169B179A013678
:105070001C44072EC8E90023CDE9296400F37C8392
:1050800008F10808DDE9140100220023FBF7CAFF3C
:10509000002840F07881129B0136013B01351C4409
:1050A000072EC8F800502996C8F804302A9400F357
:1050B0005D8108F108081A9BC8F8043001361C44C9
:1050C000072E24ABCDE92964C8F800307FF7DEACA9
:1050D0000799099828AA03F005FC00287FF450AC32
:1050E0002A9C0DF1AC08D3E4B9F1100FDDE92921B8
:1050F0002BDDCDE91D3B1F96DDF824B04E46102474
:10510000A946079D04E0103E102E08F1080817DD9F
:105110000132204B1031072AC8E90034CDE929219A
:10512000F1DD28AA294658460DF1AC0803F0DAFB58
:1051300000287FF425AC103E102EDDE92921E7DCA4
:10514000DDE91D3B4D46B1461F9EC8F80490013273
:1051500009EB0104072A0F49C8F80010CDE92924FA
:1051600000F351839DF8832008F108084DE4BB4605
:105170000A2C79F1000380F00C83303401238DF880
:105180004F415F460C930DF24F1546E634A50008DB
:1051900048A5000838A50008079909981D9328AA72
:1051A00003F0A0FB00287FF4EBAB2A9C1D9B0DF1C4
:1051B000AC083DE40799099828AA03F093FB00285E
:1051C0007FF4DEAB2A9C0DF1AC0843E4102D299B43
:1051D00021DD099FDDF81C90102604E0103D102D04
:1051E00008F1080817DD0133BB4A1034072BC8E962
:1051F0000026CDE92934F1DD28AA494638460DF1CB
:10520000AC0803F06FFB00287FF4BAAB103D102D03
:10521000DDE92934E7DC0133AF4AC8F804502C44F7
:10522000072BCDE92934C8F800207FF739AC07995E
:10523000099828AA03F056FB00287FF4A1AB2A9C0A
:105240002EE42299002940F31481DDF84090129B4E
:105250009945A8BF9946B9F1000F0BDD299B013391
:105260004C44072BC8E900592A94299300F39A85E6
:1052700008F10808109EB9F1000FA8BFA6EB0906B7
:10528000002E00F34683DDF840B07905AB4400F111
:10529000CE84229B129A934202DBFA0740F1B88334
:1052A000169A17991444C8E90012299A2A940132CF
:1052B000072A299200F3838508F10808129AAE188C
:1052C000A6EB0B06D51AAE42A8BF2E46002E0DDD6A
:1052D000299BC8F800B001333444072BC8F8046098
:1052E0002A94299300F3F18508F10808002EA8BF3D
:1052F000AD1B002D7FF7CCAB102D299BDFF8DC9187
:1053000040F3AE8249462246B946DDF824B0079CF8
:1053100010260F4605E008F10808103D102D40F357
:105320009B8201331032072BC8E90076CDE9293280
:10533000F1DD28AA2146584603F0D4FA00287FF46C
:105340001FABDDE929320DF1AC08E6E7FE073FF5BA
:105350007DAE299EC8F80050013601340123072E86
:105360002A942996C8F804307FF7A3AE07990998C4
:1053700028AA03F0B7FA00287FF402ABDDE929641C
:105380000DF1AC0897E6129B5D1E002D7FF793AEE2
:10539000102DDFF8489140F37F8222460897099C40
:1053A000079F4FF0100B05E008F10808103D102D85
:1053B00040F3708201361032072EC8E9009BCDE918
:1053C0002962F1DD28AA3946204603F08BFA00282D
:1053D0007FF4D6AADDE929620DF1AC08E6E707996A
:1053E000099828AA03F07EFA00287FF4C9AA2A9C0B
:1053F0000DF1AC08FFF73ABB17F0100372D117F0AC
:10540000400200F0BD820E9A52F8044B0E9299466B
:10541000A4B228E453F8044B0E93FB0656D47D0641
:1054200051D544F3C0394B4624B2FFF7C1BB1BF042
:10543000100340F036811BF0400200F092820E9A79
:1054400052F8044B0E929946A4B201230EE42D2388
:1054500064428DF8833069EB4909BB46012308E4B7
:10546000F8077FF515AB25E59AF800600E93FFF776
:10547000B5B9299B1A4AC8F800200133013401222A
:10548000072B2A942993C8F8042000F3708408F1AC
:105490000808002940F01E82129A07F00103134306
:1054A0003FF4F6AA169B1799E218C8E90013299B46
:1054B0002A920133072B299300F3618308F108082E
:1054C00019E254ADA9E4B80500F1B4824FEAE479D9
:1054D0004B46FFF76DBB00BF38A5000848A5000884
:1054E00034A500080E9B53F8044B0E93FFF7BBBB8B
:1054F000DDE9140102460B46FBF7C6FD002840F02B
:10550000A085612E00F05085412E00F09982089B05
:10551000013326F02003069300F08F85472B00F01F
:105520007985DDE9141247F480730F931346002B3D
:10553000C0F2ED850C9300231D938B460D93069BC3
:10554000462B00F04A84452B00F04F8508990191C5
:1055500026A9049123A9039122A9029102210C9B5F
:10556000099800915A4600F073FF069B472B0546A9
:1055700040F01C8617F0010FB9460F9F40F0D98408
:10558000269B5B1B1293069B472B00F01883069B00
:10559000462B00F05F84229B1093109B069A013BE0
:1055A000412A229300F0AA85F2B20021002BB8BF55
:1055B000109B8DF89020BABFC3F101032D222B223E
:1055C000092B8DF8912040F363850DF19F04BD4FA9
:1055D0002246104687FB0321DA17C2EBA10202EB39
:1055E0008201A3EB4101303100F8011C1946632907
:1055F000134600F1FF32ECDC3033D9B2831E9C42FB
:1056000002F8011C40F2CE8513460DF1920201E032
:1056100013F8011B02F8011B9C42F9D10DF1A10303
:105620000DF192021B1A134424AA9B1A1A93129B7F
:105630001A9A012B1A440C9240F372850C9B169A0D
:1056400013440C930C9A002329F4806722EAE27237
:1056500047F480770F930692139310931D9B002BB2
:1056600040F0DE829DF883200893FFF777BA0E9B07
:105670000B9853F8041B0E93C217C1E9000255465C
:10568000FFF724BA199B002B3FF42FA9199B1B7815
:10569000002B3FF42AA99AF8006047F48067FFF7CF
:1056A0009DB80E9B53F8044B0E930123FFF7DEBA0F
:1056B000854B189317F0200949D00E9B073323F030
:1056C0000703D3F8049053F8084B0E93F80709D555
:1056D00054EA090306D030238DF8856047F00207AD
:1056E0008DF8843027F4806B0223FFF7BFBABB46E6
:1056F000FFF723BB754B1893DCE70799099828AA95
:1057000003F0F0F800287FF43BA92A9C0DF1AC08C7
:10571000FFF7A4B90799099828AA03F0E3F800282D
:105720007FF42EA92A9C0DF1AC08FFF7D1BB062B04
:10573000294628BF062308950D952A460693644DF1
:105740000E940C930F9113911091FFF707BA17F075
:10575000100369D00E9B53F8044B0E93B6E70799DC
:10576000099828AA03F0BEF800287FF409A9DDE90A
:1057700029640DF1AC0878E40799099828AA03F088
:10578000B1F800287FF4FCA8DDE929640DF1AC082C
:1057900078E40BF480630022CDE90CA80696DDF8CE
:1057A000648054AF16469A460CE0002320464946D2
:1057B0000A22FAF725FD0A2C79F100031BD30446CF
:1057C00089462F4620460A2200234946FAF718FD4B
:1057D00030327D1E013607F8012CBAF1000FE4D0FB
:1057E00098F800309E42E0D1FF2EDED00A2C79F1ED
:1057F000000380F0F480CDF864801296DDE90CA8F7
:10580000069EFFF706BB079909981D9328AA03F087
:1058100069F800287FF4B4A89DF883202A9C1D9B7A
:105820000DF1AC08FFF7F1B817F0400200F0B680B8
:105830000E9A52F8044B0E929946A4B246E7079985
:10584000099828AA03F04EF800287FF499A82A9C0A
:105850000DF1AC08FFF729BB14463A464F46914676
:1058600001332C44072BC8F80090C8F80450CDE948
:1058700029347FF70BA92BE4012BBB467FF4B8AA90
:105880007BE40E9B0B9953F8042B554611600E9345
:10589000FFF71CB9089F144601362C44072ECDE9AA
:1058A0002964C8F80090C8F804507FF702AC5DE5A1
:1058B0002846CDF820900E94FAF722FF03460C906C
:1058C000FFF7B4B96766666604A5000818A5000866
:1058D0002CA50008169B1798E218C8E90003299B1D
:1058E0002A920133072B299300F3498108F1080814
:1058F0000029C0F2FA821299C8F8005001338C18BE
:10590000072BCDE92934C8F804107FF7BFA8FFF7AB
:10591000DFBB102E299BDFF8C09252DD484642467D
:105920002146A846B946099C079D4FF0100B074633
:1059300003E00832103E102E3DDD01331031072BFD
:10594000C2E9007BCDE92931F3DD28AA29462046AA
:1059500002F0C8FF00287FF413A8DDE929312BAA43
:10596000E8E70E9B1BF4007914BF53F8044B53F87F
:10597000044B0E931CBF9146E4B20123FFF776B9A6
:105980000E9B17F4007914BF53F8044B53F8044BE3
:105990000E931CBF9146E4B2FFF765B90E9B17F456
:1059A000007914BF53F8044B53F8044B0E931CBFFB
:1059B0009146E4B28AE6454690463A460C464F4642
:1059C000914601333444072BCDE92934C8F80090BF
:1059D000C8F8046000F3E68008F1080853E41C9B53
:1059E0001B99ED1A1A46284602F00EFF98F801306E
:1059F0000BB108F10108204649460A22002300267F
:105A0000FAF7FEFBDBE62D228DF88320FFF796B830
:105A1000129AAE18A6EB0B06D51AAE42A8BF2E46B8
:105A200064E40E9B0B9953F8042B0E93118055469A
:105A3000FFF74CB844F3C0194B4664B2FFF7B8B84F
:105A400030238DF8843058238DF88530089B632BE4
:105A500047F0020400F39B8200230D933BADDDE988
:105A6000141247F481730F931346002B2746C0F29C
:105A700020820C9326F02003069300238B461D936F
:105A8000612E00F0ED82412E7FF459AD22AA0C99CF
:105A9000584602F029FE00224FF07F53FBF75AF8D8
:105AA00002460B46CDE9102300220023FBF7BAFA89
:105AB00008B101232293494B0C93089BCDE912A610
:105AC000CDE91E78DDF830A0DDE9106703F1FF397C
:105AD000AB46109506E00022002309F1FF39FBF7E1
:105AE000A1FAE8B93E4B002230463946FBF732F8BE
:105AF0000F460646FBF7DEFA0446FAF7C1FF0B46EF
